{
    "contractName": "TokenSwap",
    "abi": [
        {
            "inputs": [],
            "stateMutability": "nonpayable",
            "type": "constructor"
        },
        {
            "anonymous": false,
            "inputs": [
                {
                    "indexed": true,
                    "internalType": "address",
                    "name": "sender",
                    "type": "address"
                },
                {
                    "indexed": false,
                    "internalType": "uint256",
                    "name": "amount",
                    "type": "uint256"
                },
                {
                    "indexed": false,
                    "internalType": "uint256",
                    "name": "timestamp",
                    "type": "uint256"
                }
            ],
            "name": "TokenLocked",
            "type": "event"
        },
        {
            "inputs": [
                {
                    "internalType": "address",
                    "name": "",
                    "type": "address"
                }
            ],
            "name": "balances",
            "outputs": [
                {
                    "internalType": "uint256",
                    "name": "",
                    "type": "uint256"
                }
            ],
            "stateMutability": "view",
            "type": "function",
            "constant": true
        },
        {
            "inputs": [
                {
                    "internalType": "uint256",
                    "name": "_amount",
                    "type": "uint256"
                }
            ],
            "name": "lockTokens",
            "outputs": [],
            "stateMutability": "nonpayable",
            "type": "function"
        },
        {
            "inputs": [
                {
                    "internalType": "address",
                    "name": "_account",
                    "type": "address"
                }
            ],
            "name": "getBalance",
            "outputs": [
                {
                    "internalType": "uint256",
                    "name": "",
                    "type": "uint256"
                }
            ],
            "stateMutability": "view",
            "type": "function",
            "constant": true
        }
    ],
    "bytecode": "0x608060405234801561001057600080fd5b506103e86000803373ffffffffffffffffffffffffffffffffffffffff1673ffffffffffffffffffffffffffffffffffffffff168152602001908152602001600020819055506104a7806100656000396000f3fe608060405234801561001057600080fd5b50600436106100415760003560e01c806327e235e3146100465780636e27d88914610076578063f8b2cb4f14610092575b600080fd5b610060600480360381019061005b91906102ae565b6100c2565b60405161006d91906102f4565b60405180910390f35b610090600480360381019061008b919061033b565b6100da565b005b6100ac60048036038101906100a791906102ae565b610203565b6040516100b991906102f4565b60405180910390f35b60006020528060005260406000206000915090505481565b806000803373ffffffffffffffffffffffffffffffffffffffff1673ffffffffffffffffffffffffffffffffffffffff16815260200190815260200160002054101561015b576040517f08c379a0000000000000000000000000000000000000000000000000000000008152600401610152906103c5565b60405180910390fd5b806000803373ffffffffffffffffffffffffffffffffffffffff1673ffffffffffffffffffffffffffffffffffffffff16815260200190815260200160002060008282546101a99190610414565b925050819055503373ffffffffffffffffffffffffffffffffffffffff167f355f10f70d87fa96080456623e394dda4d29fed618766631109fcffaaf4460a582426040516101f8929190610448565b60405180910390a250565b60008060008373ffffffffffffffffffffffffffffffffffffffff1673ffffffffffffffffffffffffffffffffffffffff168152602001908152602001600020549050919050565b600080fd5b600073ffffffffffffffffffffffffffffffffffffffff82169050919050565b600061027b82610250565b9050919050565b61028b81610270565b811461029657600080fd5b50565b6000813590506102a881610282565b92915050565b6000602082840312156102c4576102c361024b565b5b60006102d284828501610299565b91505092915050565b6000819050919050565b6102ee816102db565b82525050565b600060208201905061030960008301846102e5565b92915050565b610318816102db565b811461032357600080fd5b50565b6000813590506103358161030f565b92915050565b6000602082840312156103515761035061024b565b5b600061035f84828501610326565b91505092915050565b600082825260208201905092915050565b7f496e73756666696369656e742062616c616e6365000000000000000000000000600082015250565b60006103af601483610368565b91506103ba82610379565b602082019050919050565b600060208201905081810360008301526103de816103a2565b9050919050565b7f4e487b7100000000000000000000000000000000000000000000000000000000600052601160045260246000fd5b600061041f826102db565b915061042a836102db565b9250828203905081811115610442576104416103e5565b5b92915050565b600060408201905061045d60008301856102e5565b61046a60208301846102e5565b939250505056fea26469706673582212203483772322e14e33337c6c5be97016030cae447091d4e8b005be7b2a858d316964736f6c63430008130033",
    "immutableReferences": {},
    "source": "pragma solidity ^0.8.0;\n\ncontract TokenSwap {\n\n    event TokenLocked(address indexed sender, uint256 amount, uint256 timestamp);\n\n    mapping(address => uint256) public balances;\n\n    constructor() {\n        balances[msg.sender] = 1000;\n    }\n\n    function lockTokens(uint256 _amount) external {\n        require(balances[msg.sender] >= _amount, \"Insufficient balance\");\n        balances[msg.sender] -= _amount;\n        emit TokenLocked(msg.sender, _amount, block.timestamp);\n    }\n\n    function getBalance(address _account) external view returns (uint256) {\n        return balances[_account];\n    }\n}\n",
    "sourcePath": "/Users/lemon/Desktop/work/blockchain-app/blockchain-contracts/contracts/TokenSwap.sol",
    "compiler": {
        "name": "solc",
        "version": "0.8.19+commit.7dd6d404.Emscripten.clang"
    },
    "schemaVersion": "3.4.13",
    "updatedAt": "2025-02-04T06:58:24.467Z",
    "networkType": "ethereum",
    "devdoc": {
        "kind": "dev",
        "methods": {},
        "version": 1
    },
    "userdoc": {
        "kind": "user",
        "methods": {},
        "version": 1
    }
}